:400000000008002011000000D5150000D515000008B502F06DFF01F0E5FAC04610B50F4C12232360182002F005FEFE2212020C4B1A600C4B0C4A1A60802149000B4A1160E1
:400040000B4A1A6000220B4B1A6040320A4B1A6001320A4B1A601123236010BD30001040000301400000014040FF00800403014041FF008028000340080101400001014035
:4000800008B572B6EE221202124B1A60EE22124B1A600432114B1A600132114B1A600C23104A1360104A13600222104B1A60DB2212010F4B1A6003220E4B1A6021320E4B1A
:4000C0001A60203A0D4B1A60FFF7A8FF01F0EEFA08BDC0460003024000040240000004401800044000010440180104400003044008030440000404400804044018040440BE
:4001000010B5064C2378002B07D1054B002B02D0044800E000BF0123237010BD20010020000000001C33000008B5084B002B03D00748084900E000BF07480368002B00D1BB
:4001400008BD064B002BFBD09847F9E7000000001C33000024010020880000200000000008B500F0C9F800F035F900F095FE01F001FAF8E7004870471302000001207047B2
:400180000120704700207047004870477714000008B502F0CFFE0D4800F0E4FF002801D101F008FA0A4A136801331360094A136801331360002306E00749980042580132CC
:4001C00042500133DBB2032BF6D908BD78020020A8010020940100204801002010B5A0B068460021802203F090F8002306E0FE2292019A1812786946CA5401337F2BF6D9F6
:400200006B46581C082100F081FD6B461B78E32B03D16B465B7A83420ED00A4CFF23A37100F02CFF0023A37109E0E0B201346B46195D00F0C9FB00E00024072CF5D920B075
:4002400010BDC04678020020F8B500271AE03C1C143464000D4D64190234FEB2301C00F07FFC011C201C00F06FFF3B1C1C335B005D190235301C00F057FC011C281C00F086
:4002800063FF0137032FE2D9F8BDC0467802002010B502F0A2FE041C01F0A2FA830610D401F0D2FC01F032FA02F048FD01F032FA01F0CCFC201C02F094FE01220C4B1A7044
:4002C00002E0201C02F08DFE0A4800F04BFF01280CD000F0C1FD01F0E7FD00F049FD01F047FE732001F016F901F064F910BDC046940000207802002038B572B62C4A1368DB
:40030000802109040B4313602A4C201C002100F019FF251C5335FFF737FF81B2281C00F013FF251C5535FFF729FF011C281C00F00BFF251C5735FFF71DFF011C281C00F091
:4003400003FF251C5A35FFF71DFF011C281C00F0F9FE251C5935FFF713FF011C281C00F0F1FE62B601F020FC01F01EFC00F0D0FEFFF734FF72B600F05BFCFFF765FF62B642
:4003800097205121221C01F03DFA01F0AFF902F0D9FD094802F00AFE0020732101F0D2F802F0D8FD201C012100F0CCFE38BDC04600000340780200209101000008B500206D
:4003C00002F0CCF90A2002F0A1FC012002F0C6F908BDC04610B51C4800F0C4FE3D2801D102F09EFB194800F0BDFE012805D10122174B1A60FFF74CFF0EE0154B1B68012B0B
:400400000AD10022124B1A6000F0C6FB1148002100F098FEFFF7D2FF00F0C6FB0E4800F0A1FE002801D000F0B9FD0C4C201C00F099FE3E2807D100F0AFFB00F01FFE201CFF
:40044000002100F07FFE10BD79020020780200208C000020C9020020800200207F020020044B1A5CD3009B1A9B00034AD3189B68D888704720330000A433000010B50123C5
:4004800083401C1C024800F06DFE2040C0B210BD7E020020F8B500248BE0E0B2FFF7EEFF002800D184E0454B1A19127A9D5CEB005B1B9B00424AD3189F68424B1E5D002E57
:4004C0002AD0414B1B5D012B26D163003D4AD31800229A80281C002101F0B8FC864210D1A300384AD318DA6882239B009A4227D90222354B1A55A300324AD3180022DA6030
:400500001EE0304EA300F3180022DA60281C002101F09CFC305513E02B4B1B5D012B0AD1284EA300F3180022DA60281C002101F08DFC305504E0A300224AD3180022DA60BC
:40054000214B1B5D022B33D1AB00204A9A5891B263001C48C3189B888B4225D91204120C9A1A63001549CB189B899A4217DD0219137F0133DBB21377042B19D90122124B73
:400580001A55A300C3180022DA60EB005D1BAD000B4B5D19297E381C01F0A8FC08E0094B1B1900221A7703E06300064AD31899800134032C00D870E7F8BDC0462033000028
:4005C000A43300003C0100209000002010020020F8B54F464646C0B40024C8E0E5B2281CFFF74CFF002800D1C0E0644B1A19127A9E5CF3009B1B9B00614AD3189F683B8816
:400600009846301C002101F021FC002800D19CE0281CFFF725FF7300584AD3189B8A984200D892E0574B20331B5D002B06D1554B191C243100220A5528331A55514B24336E
:400640001B5D632B0AD84F4A111C243101330B556300D31842469A859A8680E0424663004849CB18998D73004448C3181B8DC818804502DCCB1A9A420DDA424A131C283326
:40068000002119556300D318404698859886A300D318D96313E009023A4B99461D1C28352B5D194340460322082301F06DFC030A9BB2984663004B4442469A852855A300D5
:4006C000304AD318DA6B0132DA63032A47D92D491A1C0023D3636300CB189B8E43450ED89A1C90450BDC4246D31A7A88D3189BB27B8000223A714246D31AFB801FE09845FC
:400700001DD29A1E90451ADB4246D31A7A88D3189BB27B8000223A714246D21AFA80620018498A184C21525A934208D27A80904503D943469A1AFA8001E00023FB80630072
:40074000104AD31842469A8609E00E49A2008A180023D36378886300CB184C229852301C002101F073FB074B203318550134032C00D833E70CBC90469946F8BD2033000058
:40078000A43300003C01002010B502F026FC041C01F026F8830610D401F056FA00F0B6FF02F0CCFA00F0B6FF01F050FA201C02F018FC0122034B1A7102E0201C02F011FCB7
:4007C00010BDC04690000020884201D3401A00E0081A7047044B1A5CD3009B1A9B00034AD3189B681888704720330000A4330000F8B572B600242FE0E6B2301CFFF73EFE03
:40080000002818D0251D6D005C4FED195335301CFFF7E0FF011C281C00F096FC231C14335B00DF195337301CFFF71AFE011C381C00F08AFC0FE0201D4000504D4019533033
:40084000002100F081FC201C1430400040195330002100F079FC0134032CCDD900241EE0E0B2FFF70BFE00280FD0454B3C33185D251C0C356D00414BED185335FFF7AAFFE9
:40088000011C281C00F060FC08E0201C0C3040003A4BC0185330002100F056FC0134032CDED9002465E0364B1A19157A5E5DE0B2FFF7E4FD002839D0301C002101F0C6FA6E
:4008C000012804D0002824D0032811D921E02D4E301C00F047FC6D000323AB4098430123AB40191C0143C9B2301C00F02BFC29E0244E301C00F036FC6D000323AB409843CE
:400900000223AB40191C0143C9B2301C00F01AFC18E01C4E301C00F025FC6D000323AB409843C1B2301C00F00DFC0BE0154E301C00F018FC6D000323AB409843C1B2301CDB
:4009400000F000FC013400E00024032CABD90D4D281C00F007FC54230B4AD35C984201D0FFF72CFD281C00F0FDFB5423064AD0540134032CE8D962B6F8BDC04678020020A0
:4009800020330000C90200203C010020044B1A5CD3009B1A9B00034AD3189B681980704720330000A433000072B6054B1A5CD3009B1A9B00034AD3189B6862B6587A704712
:4009C00020330000A433000072B6054B1A5CD3009B1A9B00034AD3189B68597262B6704720330000A4330000F0B5474680B486B0051C0090354C211C403104A8082202F079
:400A00007BFC635D1A1C0193DB009B1A9B00304AD3185B68188801238340013B04A8405D5843642102F0AAFB80460023039302937F26002720E0BA1955089D421ED0ECB224
:400A40000098211CFFF7C0FF0198002101F050FE01F07CFD01E002F063F901F0EDFA0028F9D10098FFF7B6FE404502D20390261C01E00290271C2B1CB742DCD1B74220D094
:400A800003984146FFF7A0FE041C02984146FFF79BFE844204D20098311CFFF795FF03E00098391CFFF790FF0198002101F020FE01F04CFD01E002F033F901F0BDFA00287E
:400AC000F9D106B004BC9046F0BDC04620330000A433000082B072B6074B1B5C0193019AD3009B1A9B00054AD3185B6862B6987AC0B202B07047C04620330000A43300005C
:400B000082B072B6064B1B5C0193019AD3009B1A9B00044AD3185B68997262B602B0704720330000A4330000044B1A5CD3009B1A9B00034AD3185B685888704720330000C2
:400B4000A4330000044B1A5CD3009B1A9B00034AD3185B685980704720330000A4330000044B1A5CD3009B1A9B00034AD3185B68D889704720330000A4330000044B1A5C17
:400B8000D3009B1A9B00034AD3185B68D981704720330000A433000000215423014AD1547047C0463C01002070B572B6002436E01D4B1B191D7A201C1C3040001B4BC018FA
:400BC000023000F0D3FA061C281CFFF7ADFF86420BD0281C1C304000144BC018023000F0C5FA011CE0B2FFF7ADFF201C143040000E4BC018023000F0B9FA061C281CFFF700
:400C0000AFFF86420AD014356D0008482818023000F0ACFA011CE0B2FFF7B0FF0134032CC6D962B670BDC0462033000078020020F0B5474680B472B600242EE01A4E331953
:400C40001F7A1A4D2B190A2290469844381CFFF741FF011C404600F075FA2B191A2290469844381CFFF7A0FE011C404600F06AFA3C36365D2F191237301CFFF72BFF011C96
:400C8000381C00F05FFA2D192235301CFFF78CFE011C281C00F056FA0134032CCED962B604BC9046F0BDC0462033000078020020F8B5051C114E331C3C33185CFFF78AFD58
:400CC000041C73191F7A381CFFF784FDF35D5B000B4A9852011B80231B029C466144094B994200D9191C89B2281CFFF74FFE064840194A30211C00F027FAF8BD2033000021
:400D000010030020FFFF00007802002010B50023002203E0845CE318DBB201328A42F9D35842C0B210BDC04630B5A1B0051C68460021802202F0E9FAE3236A4613700020F3
:400D400006E0441CC0B2FFF72FFE6B461855201C0728F6D96B46581C0821FFF7D7FF6B465872281C694601F0CBFD21B030BDC04610B500240EE0E3001B1B9B00084AD31873
:400D80009B681A88201C002100F056FA201C01F0DBF80134082CEED9062000F047FA10BDA4330000034A1168034B0B40184310607047C046C4010B40FFFF3FFF0A68074BCF
:400DC0001340012803D180225204134304E0022802D1C022920413430B607047FFFFFFFC10B5041C80200004FFF7DCFF01201849FFF7E4FF174B1A19127A985C002101F0AF
:400E000077FC01F0A3FB01E001F08AFF01F014F90028F9D18020C003FFF7C4FF02200C49FFF7CCFF0B4B1A1C3C32125D985C002101F05EFC01F08AFB01E001F071FF01F09F
:400E4000FBF80028F9D1201CFFF732FF10BDC046C4010B402033000010B50E4B1B79012B0FD100220B4B1A710020002101F040FC01F06CFB01E001F053FF01F0DDF800285B
:400E8000F9D1002403E0E0B2FFF7AAFF0134032CF9D910BD9000002070B53B4B1B78002B70D1FFF7D9FF5523384AD35C002B20D1002628E0364B5A19127A9C5C201C0021BD
:400EC00000F08CF9201C002100F0E0F9021CA100304BC850201C002100F012FA201C00F087FEE8B2FFF7BCFA002800D00126013501E000260025032DDCD9FFF7CBFAFFF79E
:400F000067FBFFF775FC244B5B79012B02D0022B11D01EE0002E03D000221C4B9A6518E01A4B9B6D2A2B14D902221B4B5A71732000F0F0FA0DE00022144B9A65002E08D036
:400F40000132154B5A71732000F0E4FA00F032FB18E0FFF719FC55230C4AD35C002B11D1111C5C228B5C0133DBB28B54192B09D901215523054AD15400F096FFFFF7F8FEB1
:400F800000F0F6FF70BDC046780200203C010020203300001002002090000020F0B5474680B48046002557E043462B41DB0750D52E4F7B191E7A7200032393401A1C2C48AB
:400FC0005421435C934343542A4C60190A3000F0C9F8011C301CFFF793FD60191A3000F0C1F8011C301CFFF7EFFC3C377F5D6019123000F0B7F8011C381CFFF781FD6019EA
:40100000223000F0AFF8011C381CFFF7DDFC002404E0E8B2FFF7E4FE0134E4B2182CF8D9124B9C5D301CFFF7D5FB021C201C002100F002F9201C00F087FF2C1D64000D4BA8
:40104000E4185334E8B2FFF7C5FB011C201C00F07BF800F029FF0135032DA5D90648002100F070F804BC9046F0BDC046203300003C010020780200208002002070B50020A4
:40108000002101F035FB01F061FA01E001F048FE00F0D2FF0028F9D100241FE0E0B2FFF7EDF9002819D080200004FFF77BFE164E0120311CFFF782FE144D2B19187AFFF7AD
:4010C00093FC8020C003FFF76DFE0220311CFFF775FE3C35285DFFF787FC0134032CDDD9002402E0FFF7B8FE0134182CFAD900F0DBFEFFF73DFE00F03BFFFFF799FD7F20EF
:40110000FFF712FE70BDC046C4010B402033000010B509490A6809480468094B1A4023409E24E40322438A24240423430A6003600120FFF743FE10BDC0010B40C4010B4064
:40114000FFFF30FF0170704730B5002306E0C418DA000D1C1541EAB222700133012BF6D930BDC0460078C0B27047C04610B5041C0020002308E0E2181178C9B2DA00914047
:401180000A1C024390B20133012BF4D910BDC046884202D9031C081C191C914200D9111C814200D2011C081C7047C04630B5012595405843C401E81A41436118D140081C85
:4011C00030BDC046034B1B1800225A54024B181842547047040200206C020020F8B54F464646C0B4041CC3001B1A9B000C4AD3189D684E00705B0B4B984664186400E15A8A
:40120000094FE35B99461A1CFFF7C2FF43464A46E252735BE35370530CBC90469946F8BDA43300005C03002024030020014B18707047C0469800002070B5061C0C1C151C80
:40124000002208E033195900CB189B185B000B495D520132D2B2022AF4D9301C211CFFF7B1FFAAB23419630005495A5205495A52ED01A400044BE55070BDC046340200204D
:401280005C0300202403002038030020F0B5051CC3001B1A9B00184AD3189E680020002208E06B185C00E3189B185B00134C1B5BC0180132022AF4D94B009B5B181883087A
:4012C0009C4600240BE0671C0C486A1853009B18DA195200125A1B195B001A523C1C012CF1D94B009E5B69184B005B181B195B00024A9E526046F0BDA433000034020020D5
:40130000F0B55F4656464D464446F0B483B0051C0C1CC3001B1A9B006449CB189E685B689A466700BB5B9B4603199B0060495958604B1B181B5D9C466B466046D87107333D
:40134000F7197F88D01B80461B78DBB2062B00D991E09B005848C3589F46D1016300F3185A8001226B46DA7188E0544B1A7858460123FFF71BFF011C4346002B00DA7DE023
:401380006B004F4A9B5A984578D902226B46DA7174E06B004A4A9B5A434511DA584601220123FFF703FF011CC309DF1B53465A889B79D318BB4261DC03226B46DA715DE059
:4013C00001226B46DA7159E03C4B1A7858460123FFF7ECFE011C6B003A4A9B5A434503DD06226B46DA7149E06B00374A9B5A434544DC04226B46DA7140E06B00324A9B5A7D
:40140000434506DC584601220123FFF7CFFE011C34E06B002B4A9B5A434503DD06226B46DA712BE003226B46DA7127E06B00254A9B5A43451BDDCB095B4506D95846012272
:401440000123FFF7B3FE011C06E01C4B1A7858460123FFF7ABFE011CCB09DF1B53461B795B08BB420ADB01226B46DA7106E003226B46DA7102E001226B46DA712B199B00E1
:401480000B4A99500B4B5B191A5D104845192A556A46073212781A55C9096400315303B03CBC90469946A246AB46F0BDA433000038030020040200207C3300009800002037
:4014C0004833000068330000343300006C02002030B583B0051C0023019301F047FC00240FE0FA208000684301A901F06DFC002803D1074B019A1A6005E0012001F01CFBF0
:401500000134092CEDD901F04BFC03B030BDC0469C01002010B5084C6060236858430A2101F02CFE054B18606168054801F026FEA0600023E36010BD9C0100209C000020FC
:4015400060EA000038B5041C0D1C0A20FFF7C0FF281CFFF7DFFF01F0DFFC054B1B68C01801F0CEFC002C01D001F0BCFC38BDC0469C00002010B50D4BDA689B689A4213D341
:401580000A4C0023E36001F0DDFC0A20FFF7A0FF6068FFF7BFFF01F0C7FC054B1B68C01801F0AEFC01F0D6FC10BDC0469C0100209C00002008B501F0C5FC01F0B5FC044B01
:4015C0001B68C01801F09CFC01F0C4FC08BDC0469C00002008B501F063FE03680C2B00D1FEE7FEE770B50F4E0F4D13E029686B68AC68002202E001C901C30432A242FAD1C3
:40160000E868002202E0002102C304328242FAD11035013E002EE9D101F048FEFEF7A0FDFEE7C046010000005436000008B500230AE0032B03D89A000949505800E0094868
:401640009900094A885001331F2BF2D9FEF718FD0022064B1A6080229205054B1A6008BD00000000D5150000000000208000002008ED00E00B4B1B68002803D08022120691
:40168000134301E05B005B08064A1360064B1B68002802D02022134301E020229343024A13607047002002402800034008B51022024B1A600120FFF7DDFF08BDC0020B4055
:4016C00008B5072001F0D4F908BDC04608B500F025F808BD08B5044A1368802109060B431360FFF7EDFF08BD0000084008B5064B1B78002B04D1FFF7E9FF0122024B1A708F
:40170000FFF7E8FF08BDC046AC01002008B500F091F808BD08B500F097F808BD10B5802252001A4B1A601A4A1A4B1A601A4B1B4A136000241A4A14601A491B4A11601B4A86
:4017400013601B4B1C60072001F09CF90720032101F0C0F90720174901F0AAF9164B1C60164B1C605222FF32154B1A60154B1C60154B1C60154B1C60154B1C70154B1C70B2
:40178000154B1C80154B00221A7010BD0000084000080040600008400701008000030840040308403A00FE001003084000020840040208405D180000C80E0840880E08405E
:4017C000480F0840080F0840C80F0840880F08407403002078030020720300207003002010B5072001F04EF9054B1C78E4B21A781F218A431A70072001F03AF9201C10BD78
:401800007803002070B5061C0D1C141E0BD0072001F038F9044B1C60044B1E80044B1D80072001F025F970BD7C030020800300207603002008B500F0ABFF0122014B1A6025
:4018400008BDC046880E084008B50022024B1A60FF2000F08FFF08BD880E084070B5A94B1B68002B00D09847A74B1C88A74B1D68A74B1E680223FF331D4235D0A54A1368B9
:401880005B005B081360A44B1A7820218A431A70197810220A431A70A04B1B68DB060BD49F4B1A78984B1B889A420AD09A4A117808230B43137004E0974A117802230B4334
:4018C0001370984A1168984B0B4013600023974A1360924A1360964A13708E4A1368802109060B43136009E1F30602D50022914B1A600A23334200D192E08F4B1B685B07A6
:4019000058D58E4B1A688A4B1B78002B17D0012B49D18B4B1B88002B0DD00121894B1960894B1B681B19D2B21A700134844A1388013B13803AE00222824B1A6036E0834B00
:401940001B8893422BD901217E4B1960804B1B88934202D99B1A9BB200E0002378490B80072B03D80121724B197014E0082B09D16C490B68A020000203430B6000216B4B30
:40198000196008E067490B688020800103430B600821664B1960624B1A70141C06E00222684B1A6002E0002001F080F80422694B1A6035E05B4B1B689B0431D5B3070DD5A2
:4019C000654B1B681F211940564A1068564B03401360012014E00821012011E0584B1988083989B219800829F5D8002008E0564B1B681B19514A1268D2B21A700134013913
:401A00000029F4D1002808D1464A1368802109020B4313600022454B1A600C224D4B1A60B3074AD5EB0615D50023404A13603B4A13603B4B1B78A34201D1022300E00A2305
:401A40002B40354A11780B4320218B4313700022374B1A706B062ED52F4A117820230B4313702F4B1B781C1C3C4A1268D20612D5364A1288D31A324A1380394B1A6880219A
:401A800049020A431A601968364A0A401A601022224B1A6002E00422244B1A600122324B1A603249194B196031490868102303430B60244B1A60154B1D60154B1B685B07FA
:401AC0001CD51F4B1B88002B0CD01F4B1B681B191B78DBB2274A13600134194A1388013B138002E0FF22234B1A60234B1B681F221340082BE5D10F3A204B1A60024B1C804A
:401B000070BDC046B001002072030020400F0840000E08400000084078030020880F08407003002060000840FF5FFFFFC80F084074030020880E0840CC0F08404003084084
:401B4000B40100206C0008407C0300208003002076030020C00F0840080308406400084004020840FFFFFEFF800E0840FF0F0000480F08404002084008020840800F08406C
:401B800008B5084B1B78002B06D100F027F900F081F90122034B1A7000F05AF800F006FB08BDC046B601002038B5FFF7E9FF051E02D100F079FA051C002D12D101F00DFAE9
:401BC000041C07E001F0ACF8201C01F00AFA01F004FA041C00F030FA0028F3D1201C01F000FA00F061F900F0C3F9281C38BDC04670B5082801D8002500E00125002D0CD144
:401C0000430902339B000E4AD3185A681F230340DA40131CDB0700D41135002D0DD1041CC3001B1A9B00074E9E19301C00F048F8051C201C311C00F0A5F8281C70BDC046C5
:401C400084030020A43300007047C0467047C04670B500230BE01348191D890000220A509A1C920082180121494251600133002BF1D00D4C092311E06668227E094B5B1997
:401C800000211975062A07D12069002804D0F179E28A520001F039FB1C342B1C5D1E002BEAD170BD84030020A43300000B884A889B1A0022CA8002799A4200DACB8070473F
:401CC000F0B583B0071C84684568037E01930026002300930BE0281C211C019A00F05EF90090281C211CFFF7E1FF0A340136FB8AB342F0D8009803B0F0BDC046F0B54F463B
:401D00004646C0B48B6899464D680A69C98A490001232CE04946CE886988194C234203D1E9890A24A046C1441C1C044003D1AF79B846414401E0AF79C91BB14201D300210E
:401D400000E0191CA14202D01678013E1670A14202D01478002C07D198430843002901D1E97900E00121117001325B0061464C1EA4460029CED10CBC90469946F0BDC0467A
:401D80005555555538B5041C0A7E134B1B181D7D062A04D1281CFFF7B1FF051C02E0002000F084FE0C4B1B191D7563091F2214401E3AA240141C002D06D1074904339B00DD
:401DC0005A58A2435A5005E0034A04339B0099580C439C5038BDC0468403002038B5174C201C00218A22520001F08FFA144B2380B0235B006380593BFF3BE38302221833F5
:401E0000E254201C22300F4908318E3201F074FA0D490C1C0C3409230CE0A268E38A04E00B78537201310A32031C581E002BF7D11C342B1C5D1E002BEFD138BD8403002026
:401E4000F64500009834000098330000082817D8C3001B1A9B000D4AD3185B8C8B4211D9C3001B1A9B00D31824331B78062B0BD1074B1818037D4900CB400320184004E0D4
:401E8000002002E0002000E00020704798330000840300200023024A9380024A1360704784030020DC01002009230BE0CB005B1A9B00064AD318DB8A00E0131C5A1E002BF7
:401EC000FBD10B1C591E002BF0D17047A4330000C9B2062902D18318002119715300195AC3185980821800231372704770B5061C0D1C012305E0301C291C221CFFF7E8FFA3
:401F0000231C5C1E002BF6D170BDC04670B50D4DC3001A1A9200AA1894688A00511849006418181A80002818067E012305E0201C311C2A1CFFF7CCFF2B1C5D1E002BF6D182
:401F400070BDC046A433000038B5051CC3001B1A9B00064AD318DB8A04E0281C211CFFF7D5FF231C5C1E002BF7D138BDA433000010B5092303E0201CFFF7E6FF231C5C1ECB
:401F8000002BF8D110BDC0469840031C534380204000801A41435818000A7047F0B583B0071C0E1C019201233BE06300985BF3185988884205D3431A32190025157201224C
:401FC00001E00B1A0022002A11D17D799D420ED233191B7A3A7A934205D3301C0199221CFFF776FF1CE032190133137218E03D799D4204D27D799D4212D9002A10D16B4648
:402000001B79062B0CD1090235192B79194301220823FFF7B9FF020A6300F3185A802871231C5C1E002BC0D1002003B0F0BDC04606230B737047C046024B9B688020184015
:402040007047C0468403002010B50F4B9B68DB030FD408280FD8430902339B000A4AD3185A681F230340DA40131CDB0705D4012404E0112402E0012400E00024002C01D115
:4020800000F00AFB201C10BD8403002008B5054B9B68DB0303D400F081FA002000E0112008BDC0468403002010B50F4B9B681B0618D400240120404211E0201CFFF7C4FFCC
:4020C00000280BD1072C03D80122084B1A7002E00022064B1A70FFF7D9FF04E00134082CEBD900E0112010BD84030020E001002010B5174A53780133DBB253705078C0B2DB
:40210000FFF7A2FF041E09D1114B5B78082B02D100220F4B1A70FFF7B9FF15E00C4B5B78082B0AD10B4A7833916899430B021B0A040623439360002406E006498B681B0223
:402140001B0A020613438B60002CD2D110BDC046E001002084030020074A084B1A6001380002074B1860054B1B68002BFBDB054A024B1A607047C04640000040000001401C
:402180000003014040FF008010B5002409E0E3001B1B9B00044AD3185968201CFFF748FF0134082CF3D910BDA433000008B5FFF7EBFF00F063F8002008BDC04670B500252D
:4021C00016E0EB005B1B9B000B4A9E58002406E0E000001B8000301800F030FA0134EB005B1B9B00044AD3189B7DA342F0D80135082DE6D970BDC046A433000010B5104B38
:402200001B68702293431C1C20230E4AD15C0E4800F0B4FF0D4B984204D820232343084A13600BE0084B984204D830232343044A136003E040232343014A136010BDC04693
:40224000A00000208403002000366E01001BB700034A044B1A60C1225204034B1A60704700008301C0010B40C4010B4001390843014B18607047C04600020B4038B5FFF7DC
:402280009DFF0024294B1C60294B1C601022294B1A60294B1C60294A1460294B1C60294B1C60294B1C60294B1C6029490868294B0340C020C00003430B6027490B6880205A
:4022C000400103430B600121244B196024480368244D2B43036080204005234B18602348234B18602348244B18601160FFF7B0FF2023224AD05CFFF72FFFFFF77FFF204B67
:402300001B68204A1343204A1360482000F05CFE0F221E4B1A601E4B1C60053A1D4B1A60C02212031C4B1A6038BDC046F4000B40B4020B40C0020B4020030B4084010B4053
:4023400088020B4080020B4084020B4080010B4000040240FFF0FFFF94020B40A0020B40A8020B4001000010A4020B401100800088010B400001000190020B40840300203B
:40238000A00000200010008000000B4000030B40F0010B4010030B4004020B4038B5041C00F01BFE0A490B687F25AB43094A1278A418A47A23430B6007490B68AB43074C4F
:4023C0002468A218527A13430B6000F00AFE38BDC0010B4010360000C4010B409804002008B5021C01238B40581E002A02D0111C00F0C4FE800808BD08B5064B1A78D30024
:402400009B1A9B00044AD3185B68D97A0348FFF72DFF08BDE1010020A43300000000060208B5031CC07A19881A7BFFF7D9FF0004000C014B186008BD14030B4010B50A20E6
:4024400000F020FB0124324B1C60182000F0BCFD304A314B1A600022304B1A600632304B1A60304B1C60802252042F4B1A602F4B1C60832252002E4B1A60033AFF3A2D4BED
:402480001A60013A2C4B1A60F0235B0000E0013B274A1268520701D4002BF8D1002B02D10822254B1A6000241B4B1C601B4B1C60832252001E4B1A600A2000F0EDFA0A20E0
:4024C00000F0D6FA164B1C60164B1C60164B1C605022164B1A604F3A184B1A600C4B1C60174A1368802149040B4313600222114B1A60F0235B0000E0013B124A12685207C1
:4025000001D0002BF8D1104A0B4B1A6010BDC04680010B4001010100B0020B40B4020B4088020B4080020B4084020B40F0010B40F0000B40F8000B4040030B408C010B4079
:4025400000020B4000000B400103000008B5044A044B91680B439360FFF770FF08BDC046840300208000010070B5041C857E067E00F033FD23681B680F22B24093431A1CAA
:402580000423B3401343666832680721A9408A4332602268136000F024FD70BD70B5174E3278174DD3009B1A9B00EB185868154C002323703278D3009B1A9B00EB18996832
:4025C000227893009B185B00CB180F4A1360FFF7E5FE3278D3009B1A9B0058592178CA00531A9B00C018094B1860FFF7BDFF084800F002F9FFF7AAFF70BDC046E1010020CA
:40260000A4330000E2010020980400209C0400206130000008B5C300181A8000054BC058CB00591A89004018034B1860FFF79CFF08BDC046A43300009C04002038B5041C34
:40264000007EA57E21680B680F22824093430B6000F0C3FC61680B680722AA4093430B6000F0BFFCA1680B68607E0122824093430B6038BD08B5064B1B78012B06D1054B36
:402680001868FFF7DBFF0022014B1A7008BDC046E30100209C04002070B5041C104DC3001B1A9B00EB185E68FFF7E4FFE4B20D490C700A78D3009B1A9B005A590A4B1A60DD
:4026C0000A4A7F2390689843031C906009780B439360301CFFF7A4FEFFF78EFE70BDC046A4330000E10100209C0400208403002038B5C3001B1A9B00124AD3185D68C9B260
:40270000114C21709968227893009B185B00CB180E4A1360FFF7C0FF281CFFF73FFE20780B4AC300181A800013689C4660441060FFF71AFF0122074B1A70074800F05CF821
:4027400038BDC046A4330000E2010020980400209C040020E3010020E92F000004490A68FD231A404000FB3B184010430860704700030440044B1B68002BFBDB0002034B09
:402780001843014B186070470000014041000080034B1B68002BFBDB024A014B1A6070470000014041000040014B98667047C0460000002010B5041C00F00FFC044A116816
:4027C000044B0B40A4051C43146000F00AFC10BD08E400E0FFFF3FFF8022D200014B1A607047C04600E100E08022D200014B1A607047C04680E100E010B5041CFFF7F4FF3A
:40280000201CFFF7D1FF0320FFF7D4FFFFF7E4FF10BDC04682B00F4B00930F4B01930F4B6A461A600E490F4A1160C0461B681B0F0F2B04D1094B1B68FF20184008E0074B02
:402840001B681B0F0A2B02D0044B186800E0002002B07047B6E90000E40100200800104016000080040010400C4B0D4A1A600D490D4A1160C0461B681B0F0F2B04D1074B2C
:402880001B68FF20184008E0044B1B681B0F0A2B02D0024B186800E00020704708001040B6E80000150000800400104082B00F4B00930F4B01930F4B6A461A600E490F4A8F
:4028C0001160C0461B681B0F0F2B04D1094B1B68FF20184008E0074B1B681B0F0A2B02D0044B186800E0002002B07047B6EA0000E401002008001040170000800400104049
:4029000030B5A5B00023239322937F2860D800295ED0041C02A8802200F0EEFC2F4B00937F2301932E4B6A461A602E492E4A1160C0461B681B0F0F2B04D1294B1B68FF2233
:40294000134008E0264B1B681B0F0A2B02D0244B1B6800E000232393239B002B3AD100F03CFB051CFFF756FF2290229B002B02D1FFF77AFF2390239B002B1FD11B4B009364
:40298000009B200418430090154B6A461A601849154A1160C0461B681B0F0F2B04D1104B1B68FF22134008E00D4B1B681B0F0A2B02D00B4B1B6800E000232393229B002B30
:4029C00002D1FFF773FF2290281C00F00AFB01E004232393239825B030BDC046B6D70000080010400400008004001040B6D800000500008038B5041C00F0EFFA051C102C5D
:402A000005D8104A136803218B43136016E0202C07D80C490B6803229343023A13430B600CE0302C07D807490B6803229343013A13430B6002E0002000F038F8281C00F067
:402A4000D0FA38BD30001040024A1168024B0B401360704700000740FFFFFFBF034B18688023DB05184000D001207047000007401F2318401E3B8340181C014B1860704790
:402A800000E100E01F2318401E3B8340181C014B1860704780E100E01F2318401E3B8340181C014B1860704780E200E001BE704738B5041C0D1C0F2802D90020FFF7F6FF3F
:402AC000A400034B9C4664442068256038BDC0464000002070B5041C0E1E032E02D90020FFF7E4FF0F2C02D90020FFF7DFFF03252540ED00063500F070FAA408A400074BC1
:402B00009C46644423680322AA409343AE40351C1D43256000F065FA70BDC04600E400E0034A13681B041B0C02490B43136070470CED00E00400FA0510B5041C06E0084B66
:402B4000586800F041FA074B9C46644480231B029C42F4D8024B9868604300F035FA10BDA40000200080FFFF30B583B000F0B0F9002848D000F031FA041C244B1B680722BF
:402B80001A409200131C1833214A12681207920FD3401A1C1F4B19681F4B19401F4B53438020C00184466344DB0B013B5B055B0D0B43A02149031943192A02D8184A1343D1
:402BC0000BE0184BD31818781A3A174B9B5CC318FF2B00D9FF239B050B430E4A1360134D2B6801933020FFF705FF114A13688021C9050B4313601420FFF79EFF019B2B60E1
:402C0000201C00F0EEF903B030BDC046080F0340280003400800074000F800C040420F000000D43FCDF1FF0F143600003000104000000740F0B583B0041E182C0BD01C2831
:402C400009D0202807D0242805D0282803D02C2801D0302849D100F0C0F90190FFF7FEFE002803D0FFF7F0FE012600E00026214A136807218B4313601F4BE3181B78DBB275
:402C80001E4A13601E4A13688B4313601D4803687F229343191C1C4BE3181B7813400B430360322000F090F9182C16D9114F3B680725AB431A1C231C1C3B9B082B40134355
:402CC0003B60322000F080F93A68AA43231C183B9B082C1C1C4014433C60012E01D1FFF743FF019800F07DF902E00020FFF7DEFE03B0F0BD080F0340CDF1FF0F0C0F034033
:402D0000100F0340180F0340B4F1FF0F08B5034B1B7B584300F058F908BDC046A400002008B500F05AF9044A136804218B43136030BF00F056F908BD10ED00E008B500F05C
:402D40004CF9074B1B889BB2064A1360064A116804230B43136030BF00F043F908BDC04652F1FF0F0400034010ED00E0074A1168074B0B40802149000B431360054A116823
:402D8000054B0B4005490B431360704734000340FFF0FFFF18000340F0F0FFFF08090000054A1168054B0B401360054A1168054B0B4013607047C04634000340FFF0FFFF37
:402DC000180003400F0F000070B5344B1A68344B134080225200934252D1324B1A68324B9A424FD1314B98424ED863284ED900294ED02F4B1B68002B38D02E4B1B68002B32
:402E000048DA2D4B1B68002B46D00D1C642358432A4B9C4660442A4900F0B0F9041E294B9C4212D9244B1868274B19684843890A00F0A4F9282100F0A1F9061C201CFA21AA
:402E4000890000F09BF970430BE01B4B18681E4B19684843890A00F091F960431B4900F08DF928600020124B186016E0164B1B689B0A104A136001220D4B1A6007200CE0F1
:402E800011200AE0112008E0112006E0112004E0112002E0072000E0112070BD340003400F0F0000180003400809000080841E00FC0100201C0003402000034071020000C5
:402EC000C409000060D10000B4000020409C0000034B1B68002B01DA012000E000207047000007400022014B1A60704738000340014A024B1A6070476588EDAC380003404A
:402F00000004030C034A1068000C0004184310607047C04640000340024B18680004000C7047C04640000340014B18687047C0463C000340024A116801230B431360704718
:402F400044000340024A136801218B43136070474C000340024A116801230B43136070474C000340014B98657047C0460000002010B5041C00F031F8044A1168044B0B40E5
:402F8000A4051C43146000F02CF810BD04E400E0FFFF3FFF4022014B1A60704700E100E04022014B1A60704780E100E010B5041CFFF7F6FF201CFFF7D5FF0320FFF7D8FF2A
:402FC000FFF7E8FF10BDC0460230800803D001300238FCD1C046C0467047EFF3108072B6704780F31088704783225200144B1A60144B1A78D3009B1A9B00134AD3185B6897
:40300000124A12681204120C198801238B40013B9A4206D20E4B19680E4B1B785B00CA5205E00B4A11680B4A127852008B520A4BDA880132DA80094A99680A409A60704775
:40304000F0000B40E1010020A4330000D0000B409804002010360000840300207FFFFEFF38B53C4B19783C4CCA00521A920010593A4A1578E9004A1B9200801883214900C9
:40308000374A11601B78DA00D31A9B00E3185B68344A12681204120C198801238B40013B9A4206D2304B1968304B1B785B00CA5205E02D4A11682D4A127852008B52FFF743
:4030C000BDFA244B18782449C200121A92008A1850681B78DA00D31A9B00CB189B7D1F4A1278013B93421DD91C4C23780133DBB22370184D2A78D3009B1A9B00CB18996884
:40310000227893009B185B00CB18174A1360FFF745F92878C0B22178C9B2FFF77BFAFFF78DF915E000220D4B1A70114A114B91680B409360104A1278012A02D1FEF7D8FFC7
:4031400006E00B4A80218B439360D3880133D38038BDC046E1010020A4330000E2010020F0000B40D0000B40980400201036000084030020FFFFFEFFE00100200022430891
:403180008B4274D303098B425FD3030A8B4244D3030B8B4228D3030C8B420DD3FF22090212BA030C8B4202D31212090265D0030B8B4219D300E0090AC30B8B4201D3CB0369
:4031C000C01A5241830B8B4201D38B03C01A5241430B8B4201D34B03C01A5241030B8B4201D30B03C01A5241C30A8B4201D3CB02C01A5241830A8B4201D38B02C01A524194
:40320000430A8B4201D34B02C01A5241030A8B4201D30B02C01A5241CDD2C3098B4201D3CB01C01A524183098B4201D38B01C01A524143098B4201D34B01C01A52410309A1
:403240008B4201D30B01C01A5241C3088B4201D3CB00C01A524183088B4201D38B00C01A524143088B4201D34B00C01A5241411A00D20146524110467047FFE701B50020F8
:4032800000F00CF802BDC0460029F7D003B5FFF775FF0EBC4243891A1847C0467047C046014B18687047C046180100200E4B70B500251E1C0D4CE41AA410A54204D0AB001F
:4032C000F35898470135F8E700F0B2F9084B00251E1C084CE41AA410A54204D0AB00F35898470135F8E770BD3C3600003C3600003C36000044360000002310B5934203D00A
:40330000CC5CC4540133F9E710BD031C8218934202D019700133FAE77047000000000000010203040506070800010203D007D007D007D007C201C201C201C201C201C2019F
:40334000C201C201C2010000C800C800C800C800C800C800C800C800C800000004050607463232323232323296009600960096009600960096009600960000005A1300008F
:403380006A13000092130000C8130000FA130000761400002C14000020202020202020202000000084350000A60300203604002000000000D801002001000100060100003B
:4033C00030350000B60300204004002000000000D401002001000100060100004C350000C60300204A04002000000000D0010020010001000601000068350000D6030020C5
:403400005404002000000000CC010020010001000601000084350000E60300205E04002000000000C80100200900010006010000A0350000F6030020680400200000000066
:40344000C40100200100010006010000BC350000060400207204002000000000C00100200100010006010000D8350000160400207C04002000000000BC01002001000100FD
:4034800006010000F4350000260400208604002000000000B801002001000100060100000C00640028280F031E640508000000101000640032321E0105640A0400007602AF
:4034C00010008813FFFF1E01056405040000881310006E003C3C140105640A040000C80010005A003C3C140105640A04000064001000C80064280F0305640A0400000010DE
:403500001000640028280F0305643204000000101000640028280F0305640A04000000101000640028280F0305640A04000000100000024008000440000004400400044032
:403540000F00000001000000000000000000024008000440000004400400044000000F001000000010040C00000002400800044000000440040004400000000F4000000079
:403580001806120000010240080104400001044004010440000F0000040000000802060000000240080004400000044004000440F000000002000000040103000000024044
:4035C0000800044000000440040004400000F0002000000014050F0000000240080004400000044004000440000000F0800000001C07150000010240080104400001044024
:403600000401044000F00000080000000C03090000000000EEDBC9B9AA9B8E82766B60564D443B332C241D17100A040043000000F8B5C046F8BC08BC9E4670472901000026
:403640002D160000F8B5C046F8BC08BC9E4670470101000068360000880000209800000080030000000000000000000001000000010101010101000005000000400600008C
:4036800002000004010000000000E02EC05D00001800000000366E0100000000000000000000000000000000000000000000000000000000000000002C36000000000000B9
:4036C0000000000000000000000000000000000000000000000000000000000000000000000000000000000000000000000000000000000000000000B800002000000000F2
:403700000000000000000000000000000000000000000000000000000000000000000000000000000000000000000000000000000000000000000000000000000000000089
:403740000000000000000000000000000000000000000000000000000000000000000000000000000000000000000000000000000000000000000000000000000000000049
:403780000000000000000000000000000000000000000000000000000000000000000000000000000000000000000000000000000000000000000000000000000000000009
:4037C00000000000000000000000000000000000000000000000000000000000000000000000000000000000000000000000000000000000000000000000000000000000C9
:403F4000000000000000000000000000000000000000000000000000000000000000000000000000000000000000000000000000000000000000000000000000130200002C
:403F80000000000000000000000000000000000000000000000000000000000000000000000000000000000000000000000000000000000000000000000000000000000001
:403FC00000000000000000000000000000000000000000000000000000000000000000000000000000000000000000000000000000000000000000000000000000000000C1
:0200000490303A
:02000000914E1F
:0200000490402A
:1000000000000000000000000000000000000000F0
:0200000490501A
:0C0000000002191111A900011922A2F739
:0200000490600A
:0100000001FE
:00000001FF